{
  "_format": "hh-sol-artifact-1",
  "contractName": "SendEther",
  "sourceName": "contracts/SendEther.sol",
  "abi": [
    {
      "inputs": [],
      "name": "returnHelloWorld",
      "outputs": [
        {
          "internalType": "string",
          "name": "",
          "type": "string"
        }
      ],
      "stateMutability": "view",
      "type": "function"
    },
    {
      "inputs": [
        {
          "internalType": "address payable",
          "name": "recipient",
          "type": "address"
        }
      ],
      "name": "send_ether",
      "outputs": [],
      "stateMutability": "payable",
      "type": "function"
    }
  ],
  "bytecode": "0x608060405234801561001057600080fd5b50610274806100206000396000f3fe6080604052600436106100295760003560e01c806335216c831461002e578063e04eae451461004a575b600080fd5b61004860048036038101906100439190610111565b610075565b005b34801561005657600080fd5b5061005f6100bf565b60405161006c9190610173565b60405180910390f35b8073ffffffffffffffffffffffffffffffffffffffff166108fc349081150290604051600060405180830381858888f193505050501580156100bb573d6000803e3d6000fd5b5050565b60606040518060400160405280600b81526020017f48656c6c6f20776f726c64000000000000000000000000000000000000000000815250905090565b60008135905061010b81610227565b92915050565b60006020828403121561012357600080fd5b6000610131848285016100fc565b91505092915050565b600061014582610195565b61014f81856101a0565b935061015f8185602086016101e3565b61016881610216565b840191505092915050565b6000602082019050818103600083015261018d818461013a565b905092915050565b600081519050919050565b600082825260208201905092915050565b60006101bc826101c3565b9050919050565b600073ffffffffffffffffffffffffffffffffffffffff82169050919050565b60005b838110156102015780820151818401526020810190506101e6565b83811115610210576000848401525b50505050565b6000601f19601f8301169050919050565b610230816101b1565b811461023b57600080fd5b5056fea26469706673582212205e595e761ca3bafa3630ce4db9a05a6cfba0276de74cd8fbdca028a72e99943964736f6c63430008000033",
  "linkReferences": {},
  "deployedLinkReferences": {}
}